:020000040000FA
:100000000C9462000C948A000C948A000C948A0070
:100010000C948A000C948A000C948A000C948A0038
:100020000C948A000C948A000C948A000C948A0028
:100030000C948A000C948A000C948A000C948A0018
:100040000C9487020C948A000C9455020C942F0295
:100050000C948A000C948A000C948A000C948A00F8
:100060000C948A000C948A000000000025002800EF
:100070002B0000000000240027002A0000000000E0
:1000800023002600290004040404040404040202DA
:100090000202020203030303030301020408102007
:1000A0004080010204081020010204081020000012
:1000B0000008000201000003040700000000000027
:1000C0000000D90411241FBECFEFD8E0DEBFCDBFA2
:1000D00011E0A0E0B1E0E4EFFDE002C005900D9278
:1000E000AA3AB107D9F722E0AAEAB1E001C01D920D
:1000F000A035B207E1F710E0C2E6D0E004C02197D6
:10010000FE010E94F206C136D107C9F70E94D10252
:100110000C94F8060C940000AF92BF92CF92DF923D
:10012000EF92FF920F931F93CF93DF936C017B01AC
:100130008B01040F151FEB015E01AE18BF08C0173D
:10014000D10759F06991D601ED91FC910190F081B0
:10015000E02DC6010995892B79F7C501DF91CF9173
:100160001F910F91FF90EF90DF90CF90BF90AF90D5
:100170000895FC01538D448D252F30E0842F90E0AD
:10018000821B930B541710F0CF9608950197089592
:10019000FC01918D828D981761F0A28DAE0FBF2F5B
:1001A000B11D5D968C91928D9F5F9F73928F90E0B1
:1001B00008958FEF9FEF0895FC01918D828D981720
:1001C00031F0828DE80FF11D858D90E008958FEF5D
:1001D0009FEF0895FC01918D228D892F90E0805C26
:1001E0009F4F821B91098F739927089583EB91E0AC
:1001F0000E94EA0021E0892B09F420E0822F089573
:1002000080E090E0892B29F00E94F60081110C9487
:1002100000000895FC01A48DA80FB92FB11DA35AA9
:10022000BF4F2C91848D90E001968F739927848F16
:10023000A689B7892C93A089B1898C918370806439
:100240008C93938D848D981306C00288F389E02DDA
:1002500080818F7D80830895EF92FF920F931F938B
:10026000CF93DF93EC0181E0888F9B8D8C8D981369
:100270001AC0E889F989808185FF15C09FB7F89475
:10028000EE89FF896083E889F989808183708064C1
:1002900080839FBF81E090E0DF91CF911F910F910C
:1002A000FF90EF900895F62E0B8D10E00F5F1F4F1B
:1002B0000F731127E02E8C8D8E110CC00FB607FC2A
:1002C000FACFE889F989808185FFF5CFCE010E94B8
:1002D0000A01F1CFEB8DEC0FFD2FF11DE35AFF4F1B
:1002E000F0829FB7F8940B8FEA89FB898081806246
:1002F000CFCFCF93DF93EC01888D8823B9F0AA8903
:10030000BB89E889F9898C9185FD03C0808186FDD0
:100310000DC00FB607FCF7CF8C9185FFF2CF80811F
:1003200085FFEDCFCE010E940A01E9CFDF91CF9189
:1003300008958E50806480937C0080917A00806460
:1003400080937A0080917A0086FDFCCF80917800BE
:100350009091790008953FB7F8948091AF01909102
:10036000B001A091B101B091B20126B5A89B05C022
:100370002F3F19F00196A11DB11D3FBFBA2FA92F24
:10038000982F8827BC01CD01620F711D811D911D21
:1003900042E0660F771F881F991F4A95D1F708958D
:1003A000FC0101900020E9F73197AF01481B590B80
:1003B000BC0183EB91E00C948C008F929F92AF92E2
:1003C000BF920F931F93CF93DF93CDB7DEB7A19763
:1003D0000FB6F894DEBF0FBECDBF19A2423008F4AD
:1003E0004AE08E010F5D1F4F842E912CB12CA12C61
:1003F000A50194010E94D006E62FB901CA01EA3096
:10040000F4F4E05DD801EE938D01232B242B252BF2
:1004100079F790E080E0109719F0CD010E94D001AB
:10042000A1960FB6F894DEBF0FBECDBFDF91CF917E
:100430001F910F91BF90AF909F908F900895E95CAE
:10044000E1CFCF93DF930E94D001EC0182E191E0F4
:100450000E94D0018C0F9D1FDF91CF9108951F92B4
:100460000F920FB60F9211242F933F934F935F93E8
:100470006F937F938F939F93AF93BF93EF93FF936C
:1004800083EB91E00E940A01FF91EF91BF91AF9140
:100490009F918F917F916F915F914F913F912F919C
:1004A0000F900FBE0F901F9018951F920F920FB6CE
:1004B0000F9211242F938F939F93EF93FF93E091CB
:1004C000C301F091C4018081E091C901F091CA019A
:1004D00082FD1BC090818091CC018F5F8F73209132
:1004E000CD01821741F0E091CC01F0E0ED54FE4FD8
:1004F000958F8093CC01FF91EF919F918F912F91D8
:100500000F900FBE0F901F9018958081F4CF1F920F
:100510000F920FB60F9211242F933F938F939F93B7
:10052000AF93BF938091AB019091AC01A091AD01CD
:10053000B091AE013091AA0123E0230F2D3758F579
:100540000196A11DB11D2093AA018093AB01909348
:10055000AC01A093AD01B093AE018091AF01909139
:10056000B001A091B101B091B2010196A11DB11DE0
:100570008093AF019093B001A093B101B093B20109
:10058000BF91AF919F918F913F912F910F900FBE8F
:100590000F901F90189526E8230F0296A11DB11DFC
:1005A000D2CF789484B5826084BD84B5816084BDE7
:1005B00085B5826085BD85B5816085BD80916E0001
:1005C000816080936E001092810080918100826032
:1005D000809381008091810081608093810080916F
:1005E00080008160809380008091B100846080935E
:1005F000B1008091B00081608093B00080917A005A
:10060000846080937A0080917A00826080937A007F
:1006100080917A00816080937A0080917A0080686E
:1006200080937A001092C100E091C301F091C4015F
:1006300082E08083E091BF01F091C0011082E091DF
:10064000C101F091C2018FEC80831092CB01E09147
:10065000C701F091C80186E08083E091C501F09167
:10066000C601808180618083E091C501F091C6015F
:10067000808188608083E091C501F091C60180810E
:1006800080688083E091C501F091C60180818F7DF3
:1006900080834CE9242E40E0342EF101249108E8B7
:1006A00010E0F80184918823C1F090E0880F991F31
:1006B000FC01EE58FF4FA591B491FC01E859FF4FA2
:1006C000C591D4913FB7F8949C91822F809598233F
:1006D0009C939881892388833FBF85E191E00E94A4
:1006E0002102C0E0D0E0E0EBF0E08491F1019491D0
:1006F000F8012491222309F4C5C0882359F08330DE
:1007000009F4A9C008F09CC0813009F4AAC0823065
:1007100009F4ABC0E22FF0E0EE0FFF1FE458FF4FEB
:10072000A591B4918C91982309F4ACC087E391E032
:100730000E9421028EE00E949901BC01990F880B52
:10074000990B0E94A9052AE038E240EA5BE30E9487
:100750005E0620E030E048EC52E40E945E066B0149
:100760007C014B015C0189E591E00E94D001A70169
:100770009601C701B6010E94CB06882309F485C003
:1007800087E691E00E94D00183E791E00E94210278
:100790008FE00E9499016C0188E791E00E94D001EE
:1007A0000D2C000CEE08FF084AE0C701B601F7FE69
:1007B0000DC06DE283EB91E00E942C016627772744
:1007C000CB016C197D098E099F094AE00E94DD0169
:1007D00082E191E00E94D0018BE891E00E94210229
:1007E0000E94AB014B015C0188EEC82E83E0D82E3D
:1007F000E12CF12C0E94AB01681979098A099B0947
:10080000683E734081059105A8F3F1E0CF1AD10845
:10081000E108F10828EE820E23E0921EA11CB11C13
:10082000C114D104E104F10429F7209709F45BCF46
:100830000E94F600882309F456CF0E94000053CF8F
:100840008730B1F08830D1F0843009F063CF8091E7
:1008500080008F7D03C0809180008F77809380001F
:1008600059CF84B58F7784BD55CF84B58F7DFBCFAD
:100870008091B0008F778093B0004CCF8091B00012
:100880008F7DF9CF85E491E053CF26013701E894BD
:1008900077F82FEF3FEF4FE75FE7C301B2010E9408
:1008A000CB0681110DC02FEF3FEF4FE75FE7C3018C
:1008B000B2010E94730518161CF48BE691E062CF1A
:1008C0002FEF3FEF4FE75FE4C701B6010E945906E3
:1008D00018161CF48FE691E055CF2FEF3FEF4FE74E
:1008E0005FECC701B6010E94730587FDF3CF20E0DE
:1008F00030E0A901C701B6010E94730587FF0BC054
:100900006DE283EB91E00E942C0146015701B7FA9A
:10091000B094B7F8B0942AE037ED43EA5BE3C50141
:10092000B4010E9407054B015C010E9478056B0130
:100930007C010E94A7059B01AC01C501B4010E9486
:1009400006054B015C014AE0C701B6010E94DD01CA
:100950006EE283EB91E00E942C0120E030E040E267
:1009600051E4C501B4010E945E064B015C010E9486
:1009700078056B01F12CE12C4AE0C701B6010E9419
:10098000DD01C701B6010E94A7059B01AC01C501AD
:10099000B4010E94060520E030E040E251E40E94EC
:1009A0005E060E94780590E080E04AE00E94DD014A
:1009B000EBCEE3EBF1E01382128288EE93E0A0E04D
:1009C000B0E084839583A683B78384E091E091832C
:1009D000808385EC90E09587848784EC90E097870E
:1009E000868780EC90E0918B808B81EC90E0938BFC
:1009F000828B82EC90E0958B848B86EC90E0978BD9
:100A0000868B118E128E138E148E08955058BB272C
:100A1000AA270E941E050C941F060E94110638F09A
:100A20000E94180620F039F49F3F19F426F40C9424
:100A30000E060EF4E095E7FB0C940806E92F0E94E1
:100A4000300658F3BA17620773078407950720F03A
:100A500079F4A6F50C9452060EF4E0950B2EBA2FFD
:100A6000A02D0B01B90190010C01CA01A0011124B4
:100A7000FF27591B99F0593F50F4503E68F11A1660
:100A8000F040A22F232F342F4427585FF3CF4695F1
:100A900037952795A795F0405395C9F77EF41F1613
:100AA000BA0B620B730B840BBAF09150A1F0FF0FDD
:100AB000BB1F661F771F881FC2F70EC0BA0F621FC9
:100AC000731F841F48F4879577956795B795F795B9
:100AD0009E3F08F0B0CF9395880F08F09927EE0F4E
:100AE0009795879508950E94E40508F481E008959C
:100AF0000E94380688F09F5798F0B92F9927B75170
:100B0000B0F0E1F0660F771F881F991F1AF0BA95B1
:100B1000C9F714C0B13091F00E945206B1E00895B7
:100B20000C945206672F782F8827B85F39F0B93FA9
:100B3000CCF3869577956795B395D9F73EF4909564
:100B40008095709561957F4F8F4F9F4F0895E894E2
:100B500009C097FB3EF490958095709561957F4F05
:100B60008F4F9F4F9923A9F0F92F96E9BB279395B3
:100B7000F695879577956795B795F111F8CFFAF4C3
:100B8000BB0F11F460FF1BC06F5F7F4F8F4F9F4FF4
:100B900016C0882311F096E911C0772321F09EE852
:100BA000872F762F05C0662371F096E8862F70E0B8
:100BB00060E02AF09A95660F771F881FDAF7880F92
:100BC0009695879597F90895990F0008550FAA0BE8
:100BD000E0E8FEEF16161706E807F907C0F0121650
:100BE0001306E407F50798F0621B730B840B950B53
:100BF00039F40A2661F0232B242B252B21F40895A8
:100C00000A2609F4A140A6958FEF811D811D089544
:100C100097F99F6780E870E060E008959FEF80ECAF
:100C2000089500240A941616170618060906089552
:100C300000240A9412161306140605060895092EB8
:100C40000394000C11F4882352F0BB0F40F4BF2B27
:100C500011F460FF04C06F5F7F4F8F4F9F4F089567
:100C600057FD9058440F551F59F05F3F71F047955D
:100C7000880F97FB991F61F09F3F79F08795089542
:100C8000121613061406551FF2CF4695F1DF08C061
:100C9000161617061806991FF1CF8695710561057E
:100CA00008940895E894BB2766277727CB0197F926
:100CB00008950E94E40508F48FEF08950E947106DC
:100CC0000C941F060E94110638F00E94180620F0AE
:100CD000952311F00C9408060C940E0611240C9424
:100CE00053060E94300670F3959FC1F3950F50E0B4
:100CF000551F629FF001729FBB27F00DB11D639FCE
:100D0000AA27F00DB11DAA1F649F6627B00DA11D73
:100D1000661F829F2227B00DA11D621F739FB00D19
:100D2000A11D621F839FA00D611D221F749F332789
:100D3000A00D611D231F849F600D211D822F762F22
:100D40006A2F11249F5750409AF0F1F088234AF0FF
:100D5000EE0FFF1FBB1F661F771F881F915050406B
:100D6000A9F79E3F510580F00C9408060C94530699
:100D70005F3FE4F3983ED4F3869577956795B795F2
:100D8000F795E7959F5FC1F7FE2B880F911D96950C
:100D9000879597F908950E94E405880B990B0895AB
:100DA000A1E21A2EAA1BBB1BFD010DC0AA1FBB1F6F
:100DB000EE1FFF1FA217B307E407F50720F0A21BE1
:100DC000B30BE40BF50B661F771F881F991F1A944E
:100DD00069F760957095809590959B01AC01BD0178
:100DE000CF010895EE0FFF1F0590F491E02D0994B7
:100DF000F894FFCF000000002C018C00B9007901AD
:100E0000EA00C800DC000D0A00456E67696E6520C7
:100E10004D61696E74656E616E6365204D6F6475BA
:100E20006C652053746172746564004E6F2056695E
:100E300062726174696F6E2E0056696272617469C4
:100E40006F6E204465746563746564210054656D3C
:100E500070657261747572653A20006E616E00692A
:100E60006E66006F76660020C2B043004761732053
:100E700053656E736F722056616C75653A20002D54
:100E80002D2D2D2D2D2D2D2D2D2D2D2D2D2D2D2D92
:0E0E90002D2D2D2D2D2D2D2D2D2D2D2D000038
:107E0000112484B714BE81FFF0D085E080938100F7
:107E100082E08093C00088E18093C10086E0809377
:107E2000C20080E18093C4008EE0C9D0259A86E02C
:107E300020E33CEF91E0309385002093840096BBD3
:107E4000B09BFECF1D9AA8958150A9F7CC24DD24C4
:107E500088248394B5E0AB2EA1E19A2EF3E0BF2EE7
:107E6000A2D0813461F49FD0082FAFD0023811F036
:107E7000013811F484E001C083E08DD089C08234E0
:107E800011F484E103C0853419F485E0A6D080C0E4
:107E9000853579F488D0E82EFF2485D0082F10E0AE
:107EA000102F00270E291F29000F111F8ED06801E7
:107EB0006FC0863521F484E090D080E0DECF843638
:107EC00009F040C070D06FD0082F6DD080E0C81688
:107ED00080E7D80618F4F601B7BEE895C0E0D1E017
:107EE00062D089930C17E1F7F0E0CF16F0E7DF06D8
:107EF00018F0F601B7BEE89568D007B600FCFDCFD4
:107F0000A601A0E0B1E02C9130E011968C91119780
:107F100090E0982F8827822B932B1296FA010C0160
:107F200087BEE89511244E5F5F4FF1E0A038BF0790
:107F300051F7F601A7BEE89507B600FCFDCF97BE46
:107F4000E89526C08437B1F42ED02DD0F82E2BD052
:107F50003CD0F601EF2C8F010F5F1F4F84911BD097
:107F6000EA94F801C1F70894C11CD11CFA94CF0C13
:107F7000D11C0EC0853739F428D08EE10CD085E9AC
:107F80000AD08FE07ACF813511F488E018D01DD067
:107F900080E101D065CF982F8091C00085FFFCCF94
:107FA0009093C60008958091C00087FFFCCF809118
:107FB000C00084FD01C0A8958091C6000895E0E648
:107FC000F0E098E1908380830895EDDF803219F02E
:107FD00088E0F5DFFFCF84E1DECF1F93182FE3DFCA
:107FE0001150E9F7F2DF1F91089580E0E8DFEE27F6
:047FF000FF270994CA
:027FFE00040479
:00000001FF
