:020000040000FA
:100000000C9458000C9480000C9480000C94800098
:100010000C9480000C9480000C9480000C94800060
:100020000C9480000C9480000C9480000C94800050
:100030000C9480000C9480000C9480000C94800040
:100040000C9433070C9480000C9401070C94DB068D
:100050000C9480000C9480000C9480000C94800020
:100060000C947D070C9480000000000025002800FF
:100070002B00040404040404040402020202020229
:10008000030303030303010204081020408001025C
:1000900004081020010204081020000000080002DB
:1000A00001000003040700000000000000009C089D
:1000B00011241FBECFEFD8E0DEBFCDBF11E0A0E01E
:1000C000B1E0ECEBF5E102C005900D92A23DB10765
:1000D000D9F723E0A2EDB1E001C01D92A736B20727
:1000E000E1F710E0C8E5D0E004C02197FE010E94CE
:1000F000D60AC735D107C9F70E94E3080C94DC0A79
:100100000C94000008950895AF92BF92CF92DF92B1
:10011000EF92FF920F931F93CF93DF936C017B01BC
:100120008B01040F151FEB015E01AE18BF08C0174D
:10013000D10759F06991D601ED91FC910190F081C0
:10014000E02DC6010995892B79F7C501DF91CF9183
:100150001F910F91FF90EF90DF90CF90BF90AF90E5
:100160000895FC01538D448D252F30E0842F90E0BD
:10017000821B930B541710F0CF96089501970895A2
:10018000FC01918D828D981761F0A28DAE0FBF2F6B
:10019000B11D5D968C91928D9F5F9F73928F90E0C1
:1001A00008958FEF9FEF0895FC01918D828D981730
:1001B00031F0828DE80FF11D858D90E008958FEF6D
:1001C0009FEF0895FC01918D228D892F90E0805C36
:1001D0009F4F821B91098F739927089585E992E0BB
:1001E0000E94E20021E0892B09F420E0822F08958B
:1001F00080E090E0892B29F00E94EE0081110C94A0
:1002000000000895FC01A48DA80FB92FB11DA35AB9
:10021000BF4F2C91848D90E001968F739927848F26
:10022000A689B7892C93A089B1898C918370806449
:100230008C93938D848D981306C00288F389E02DEA
:1002400080818F7D80830895EF92FF920F931F939B
:10025000CF93DF93EC0181E0888F9B8D8C8D981379
:100260001AC0E889F989808185FF15C09FB7F89485
:10027000EE89FF896083E889F989808183708064D1
:1002800080839FBF81E090E0DF91CF911F910F911C
:10029000FF90EF900895F62E0B8D10E00F5F1F4F2B
:1002A0000F731127E02E8C8D8E110CC00FB607FC3A
:1002B000FACFE889F989808185FFF5CFCE010E94C8
:1002C0000201F1CFEB8DEC0FFD2FF11DE35AFF4F33
:1002D000F0829FB7F8940B8FEA89FB898081806256
:1002E000CFCFCF93DF93EC01888D8823B9F0AA8913
:1002F000BB89E889F9898C9185FD03C0808186FDE1
:100300000DC00FB607FCF7CF8C9185FFF2CF80812F
:1003100085FFEDCFCE010E940201E9CFDF91CF91A1
:10032000089590E0FC01E656FF4F2491FC01EA5746
:10033000FF4F3491FC01EE58FF4FE491EE23C9F0DA
:10034000222339F0233001F1A8F4213019F12230B1
:1003500029F1F0E0EE0FFF1FE859FF4FA591B4918E
:100360008FB7F894EC91611126C030953E233C93F1
:100370008FBF08952730A9F02830C9F0243049F7FD
:10038000809180008F7D03C0809180008F77809363
:100390008000DFCF84B58F7784BDDBCF84B58F7DC0
:1003A000FBCF8091B0008F778093B000D2CF809147
:1003B000B0008F7DF9CF3E2BDACF3FB7F894809114
:1003C0003B0290913C02A0913D02B0913E0226B5C5
:1003D000A89B05C02F3F19F00196A11DB11D3FBF7D
:1003E000BA2FA92F982F8827BC01CD01620F711D4C
:1003F000811D911D42E0660F771F881F991F4A9546
:10040000D1F708952091F301260F3327331F2132AE
:100410003105ECF420916B02FC0190E080E0243087
:1004200069F082E00895A091F3012191AC014D5251
:100430005E4FA40FB52FB11D2C930196861798F32C
:100440008091F301680F6093F30180E0089581E0EB
:10045000089510926B0281E080936A021092450227
:1004600061E082E10E94910161E083E10E949101DB
:10047000E9EBF0E080818E7F808380818D7F8083B7
:1004800088E48093B80085E48093BC000895CF93FE
:10049000DF9391E09093D2018823B9F0C091B80026
:1004A000D091BA008091BC008A7B8093BC0060E050
:1004B00082E10E94910160E083E10E9491010E942B
:1004C0002902D093BA00C093B800DF91CF9108956C
:1004D0008F929F92AF92BF92CF92DF92EF92FF9254
:1004E0000F931F93CF93DF93D0919402D13208F0F2
:1004F000D7C0182FC09193020E94DD016B017C01CF
:1005000080916B0281116BC082E080936B0210932B
:100510006A028FEF8093690210926802D09367029B
:10052000A3E7B2E0E7E4F2E080E0D81391C01092D4
:10053000460280914602CC0FC82BC09346028091A0
:100540004502813009F088C0109245020E94DD0109
:100550006B017C01809146028093BB0080916D020B
:1005600090916E02A0916F02B0917002892B8A2B3C
:100570008B2BA1F00E94DD0100916D0210916E02A3
:1005800020916F02309170026C197D098E099F09CC
:10059000061717072807390708F442C08091BC00E6
:1005A00083FDD8CF85EC8093BC000E94DD016B01F8
:1005B0007C0180916B02823009F450C08091690205
:1005C0008F3F09F46FC080916902803209F46CC0DA
:1005D00080916902803309F469C084E026C080916B
:1005E0006D0290916E02A0916F02B0917002892B02
:1005F0008A2B8B2B09F484CF0E94DD0180906D0241
:1006000090906E02A0906F02B09070026C197D09FC
:100610008E099F0986169706A806B90608F070CFBE
:1006200080916C020E94470285E010927202109243
:10063000940210927102DF91CF911F910F91FF9060
:10064000EF90DF90CF90BF90AF909F908F900895E4
:100650009D9191938F5F69CF85EEA5CF80916D02BB
:1006600090916E02A0916F02B0917002892B8A2B3B
:100670008B2B09F49ECF0E94DD0100916D02109139
:100680006E0220916F02309170026C197D098E0903
:100690009F09061717072807390708F08ACFC0CF28
:1006A00081E0C3CF80E0C1CF82E0BFCF83E0BDCF88
:1006B0000F931F93CF93DF938A01E901209711F4E1
:1006C000C2E3D3E091E09093710280939302109281
:1006D000720210929402E881F9810190F081E02D7C
:1006E000CE010995E881F9810190F081E02DD801D2
:1006F0006C91CE01099581E00E94680291E0811120
:1007000090E0892FDF91CF911F910F910895089567
:10071000E091440280914302E81730F4F0E0EA5E91
:10072000FD4F808190E008958FEF9FEF08959091A5
:100730004402809143022FEF3FEF981748F4E92FCE
:10074000F0E0EA5EFD4F208130E09F5F909344022D
:10075000C90108958091430290914402891B990B2D
:100760000895CF92DF92EF92FF920F931F93CF9352
:10077000DF937C01CB018A0120917102222389F051
:10078000EB016B01C40ED51ECC15DD0569F0699136
:10079000D701ED91FC910190F081E02DC701099501
:1007A000F3CF642F0E940202C801DF91CF911F9105
:1007B0000F91FF90EF90DF90CF900895CF93DF934C
:1007C0001F92CDB7DEB76983209171022223F9F021
:1007D00020919402203258F021E030E0FC01338374
:1007E000228390E080E00F90DF91CF910895809177
:1007F0007202E82FF0E0ED58FD4F998190838F5FF2
:10080000809372028093940281E090E0ECCF61E0EB
:10081000CE0101960E940202F7CF90E080E0089599
:10082000FC0101900020E9F73197AF01481B590BFB
:10083000BC0185E992E00C948400CF93DF930E9481
:100840001004EC0184E291E00E9410048C0F9D1FC3
:10085000DF91CF9108958F929F92AF92BF92CF92E6
:10086000DF92EF92FF920F931F93CF93DF93CDB759
:10087000DEB7A1970FB6F894DEBF0FBECDBF6C01F7
:10088000990FEE08FF08F7FE41C06DE285E992E09E
:100890000E9424018C0122273327A9012C193D092C
:1008A0004E095F0919A2CE0181967C019AE0892E3A
:1008B000912CA12CB12CCA01B901A50194010E946F
:1008C000B40A605DF70162937F012115310541058E
:1008D000510589F790E080E0309719F0CF010E9430
:1008E0001004800F911FA1960FB6F894DEBF0FBEC3
:1008F000CDBFDF91CF911F910F91FF90EF90DF90CF
:10090000CF90BF90AF909F908F900895A7019601D0
:1009100019A28E010F5D1F4F8AE0C82ED12CE12C49
:10092000F12CCA01B901A70196010E94B40A605DC9
:10093000F80162938F01211531054105510589F7B1
:1009400090E080E0309779F2CF010E941004CBCF85
:100950002F923F924F925F926F927F928F929F92CF
:10096000AF92BF92CF92DF92EF92FF920F931F93BD
:10097000CF93DF93CDB7DEB72F970FB6F894DEBFD6
:100980000FBECDBF8C836F83498339872887480189
:100990008FB7F894A0903702B0903802C090390217
:1009A000D0903A028FBFE114F10421F482E3E82EE3
:1009B00083E0F82E2C81220F2E833981832F90E043
:1009C000432F41954D83132F312C212C1F869B8360
:1009D0008A8301E0C401B0E0A0E08A879B87AC87EE
:1009E000BD87AA81BB812A163B060CF01AC1009371
:1009F0007102BC81B0939302109272021092940221
:100A0000D701ED91FC910190F081E02D6F81C7013C
:100A1000099581E00E9468020E94DD012B013C01E2
:100A200080916B0281116DC01E87113210F0B0E20F
:100A3000BE8700936B0200936A022FEF2093690236
:100A4000109268028E85815080936702009346025F
:100A5000809146023E81832B80934602809145021D
:100A6000813009F098C0109245020E94DD012B01EF
:100A70003C01809146028093BB0080916D02909171
:100A80006E02A0916F02B0917002892B8A2B8B2B82
:100A9000A1F00E94DD0120916D0230916E02409123
:100AA0006F0250917002641975098609970926171B
:100AB00037074807590708F445C08091BC0083FDFB
:100AC000D8CF45EC4093BC000E94DD012B013C01D6
:100AD00080916B02813009F462C0809168029E852A
:100AE000891718F4A0916802AE87E7E4F2E0A6E166
:100AF000B2E080E02E85821751F191919D938F5F36
:100B0000F9CF80916D0290916E02A0916F02B09129
:100B10007002892B8A2B8B2B09F482CF0E94DD0176
:100B200020916D0230916E0240916F0250917002DF
:100B30006419750986099709261737074807590761
:100B400008F06ECF80916C020E9447021E861092C0
:100B500044023E8530934302D701ED91FC9100841D
:100B6000F185E02DC7010995892B09F453C0811443
:100B70009104B9F5D701ED91FC910284F385E02D44
:100B8000C7010995E885F985BF85EB0FF11D8083C5
:100B9000BF5FBF87E1CF55EE5093BC0095CF8091EA
:100BA0006D0290916E02A0916F02B0917002892B3C
:100BB0008A2B8B2B09F48CCF0E94DD0120916D02D2
:100BC00030916E0240916F02509170026419750964
:100BD00086099709261737074807590708F078CF7D
:100BE000B1CF2FB7F8948091370290913802A0913D
:100BF0003902B0913A022FBF8A199B09AC09BD098D
:100C00002A853B854C855D8582179307A407B50728
:100C100008F4B0CF4A815B81240E351E5D81150F2B
:100C2000E0CE81149104E1F02FB7F894809137025F
:100C300090913802A0913902B0913A022FBF8A19DF
:100C40009B09AC09BD09B12CA12C88159905AA05F1
:100C5000BB0530F08F859981891710F4AFEFAF870E
:100C60008F852F960FB6F894DEBF0FBECDBFDF91F4
:100C7000CF911F910F91FF90EF90DF90CF90BF9099
:100C8000AF909F908F907F906F905F904F903F902C
:100C90002F9008957F928F929F92AF92BF92CF92A2
:100CA000DF92EF92FF920F931F93CF93DF9300D0C9
:100CB000CDB7DEB7A82E962E742E822EB02E08EE5B
:100CC00013E09E012E5F3F4F41E00E94A80488235D
:100CD000C1F1872D8819990BAC014F5F5F4F81E0FF
:100CE00090E002C0880F991F8A94E2F70197042EC2
:100CF00001C0880F0A94EAF72B2D01C0220F4A95F4
:100D0000EAF7B82EB0949A81B92282238B298A837C
:100D100089839701AE014F5F5F4F692D8A2D0E9435
:100D200058030F900F90DF91CF911F910F91FF907B
:100D3000EF90DF90CF90BF90AF909F908F907F907B
:100D4000089580E0EECF85ED8093BC0080916D0228
:100D500090916E02A0916F02B09170020796A11D52
:100D6000B11D23E0B695A795979587952A95D1F75C
:100D70002091BC0024FD03C010926B0208954091A5
:100D80006D0250916E0260916F0270917002452B5E
:100D9000462B472B69F30097A105B10541F02AE2E4
:100DA0002A95F1F700C00197A109B109E1CF80911F
:100DB0006C020C9447021F920F920FB60F921124EF
:100DC0002F933F934F935F936F937F938F939F9353
:100DD000AF93BF93EF93FF9385E992E00E940201E6
:100DE000FF91EF91BF91AF919F918F917F916F9103
:100DF0005F914F913F912F910F900FBE0F901F90D9
:100E000018951F920F920FB60F9211242F938F9364
:100E10009F93EF93FF93E091A502F091A60280814A
:100E2000E091AB02F091AC0282FD1BC090818091F9
:100E3000AE028F5F8F732091AF02821741F0E09175
:100E4000AE02F0E0EB56FD4F958F8093AE02FF911E
:100E5000EF919F918F912F910F900FBE0F901F9048
:100E600018958081F4CF1F920F920FB60F92112424
:100E70002F933F938F939F93AF93BF9380913702AC
:100E800090913802A0913902B0913A023091360225
:100E900023E0230F2D3758F50196A11DB11D209396
:100EA00036028093370290933802A0933902B093B0
:100EB0003A0280913B0290913C02A0913D02B09198
:100EC0003E020196A11DB11D80933B0290933C020E
:100ED000A0933D02B0933E02BF91AF919F918F913D
:100EE0003F912F910F900FBE0F901F90189526E8FD
:100EF000230F0296A11DB11DD2CF1F920F920FB6E4
:100F00000F9211242F933F934F935F936F937F938F
:100F10008F939F93AF93BF93EF93FF938091B9000B
:100F2000887F803609F44AC0F0F5883209F4A7C0FA
:100F300018F5803109F49BC0B8F4882309F4F9C08E
:100F4000883009F494C0FF91EF91BF91AF919F91C8
:100F50008F917F916F915F914F913F912F910F9062
:100F60000FBE0F901F901895883109F488C0803209
:100F700051F78093690214C0803409F49DC040F495
:100F80008033B9F38833F9F68093690285ECB0C0F9
:100F9000803509F485C0883509F496C0883499F6FF
:100FA0000E94A306D0CF883909F48CC038F5883761
:100FB00029F050F4883611F0803729F683E08093C9
:100FC0006B021092150257C0883809F47BC0803933
:100FD00019F0803809F0B7CF80911502803208F0FF
:100FE00071C0E091150281E08E0F8093150280910F
:100FF000BB00F0E0EB50FE4F80833DC0803B39F0FA
:10100000E0F4803A09F479C0883A09F09CCF84E092
:1010100080936B021092F4011092F301E09141026F
:10102000F091420209958091F30181110FC081E096
:101030008093F3011092D30109C0803C09F4A6CF3C
:10104000883C09F4A3CF883B09F07DCFE091F401FF
:1010500081E08E0F8093F401F0E0ED52FE4F80812D
:101060008093BB009091F4018091F30129C080919D
:1010700046028093BB0085EC8093BC0064CF9091C6
:10108000680280916702981758F5E091680281E044
:101090008E0F80936802F0E0E95BFD4F8081E9CF1D
:1010A000E091680281E08E0F809368028091BB001E
:1010B000F0E0E95BFD4F80839091680280916702C8
:1010C0009817C8F285E8D8CFE091680281E08E0FCA
:1010D000809368028091BB00F0E0E95BFD4F808364
:1010E00080916A0281115CCF81E08093450284EA9D
:1010F0008093BC0010926B0226CF85EC8093BC00DD
:1011000010926B0280911502803230F4E09115024A
:10111000F0E0EB50FE4F10826091150270E0E0911C
:101120003F02F091400285EF91E00995109215027F
:101130000ACF1092690234CFE5E9F2E013821282FD
:1011400088EE93E0A0E0B0E084839583A683B78324
:1011500024E031E03183208325EC30E0358724879B
:1011600024EC30E03787268720EC30E0318B208B71
:1011700021EC30E0338B228B22EC30E0358B248B5A
:1011800026EC30E0378B268B118E128E138E148E48
:10119000E2E3F3E01382128284839583A683B7830C
:1011A00086E191E091838083EEE3F3E088E680833B
:1011B0001282118288EF9AE2A0E0B0E0818B928BDC
:1011C000A38BB48B0895CF93DF9300D0CDB7DEB758
:1011D000789484B5826084BD84B5816084BD85B512
:1011E000826085BD85B5816085BD80916E0081601E
:1011F00080936E00109281008091810082608093C4
:1012000081008091810081608093810080918000C5
:101210008160809380008091B10084608093B100F0
:101220008091B00081608093B00080917A008460EA
:1012300080937A0080917A00826080937A00809116
:101240007A00816080937A0080917A008068809330
:101250007A001092C100E091A502F091A60282E00E
:101260008083E091A102F091A2021082E091A3029A
:10127000F091A4028FEC80831092AD02E091A9025C
:10128000F091AA0286E08083E091A702F091A80283
:10129000808180618083E091A702F091A802808123
:1012A00088608083E091A702F091A8028081806825
:1012B0008083E091A702F091A80280818F7D8083D6
:1012C0001092440210924302109272021092940201
:1012D0000E94290282E890E09093420280934102AA
:1012E00083E890E09093400280933F0287E291E090
:1012F0000E941D04E0903F03F090400301E023E0D2
:1013000042E06BE680913E030E944A0680E090E056
:10131000AAE7BCE38093570390935803A093590323
:10132000B0935A03E0903F03F090400300E022E0C6
:1013300044E06BE180913E030E944A0680E090E029
:10134000A0E0B9E38093530390935403A093550313
:10135000B0935603E0903F03F090400322E044E056
:101360006CE180913E030E944A06A0903F03B0903A
:101370004003D0903E03750108EE13E09E012F5FFD
:101380003F4F41E06BE68D2D0E94A80489818F7B41
:1013900089838A839501AE014E5F5F4F6BE68D2D89
:1013A0000E945803E0903F03F09040039E012F5F9E
:1013B0003F4F41E065E780913E030E94A8048823E7
:1013C00039F089818E7790E09595879580934103D8
:1013D00080914103843349F08C3039F08A3329F00D
:1013E0008FE391E00E941D04FFCF8AE591E00E9407
:1013F0001D0490E0492E90E0592EE0903F03F090BC
:10140000400308EE13E021E433E04EE06BE380910B
:101410003E030E94A804E0904103F0904203FE24A2
:10142000EF24FE2400914303109144031027012769
:101430001027609045037090460376246724762435
:101440008090490390904A03982489249824A0907E
:101450004B03B0904C03BA24AB24BA24C0904D0384
:10146000D0904E03DC24CD24DC248AE791E00E9456
:101470001004C7010E942B0484E891E00E9410042C
:10148000C8010E942B048BE891E00E941004C30164
:101490000E942B0482E991E00E941004C4010E9482
:1014A0002B0484E891E00E941004C5010E942B04E3
:1014B0008BE891E00E941004C6010E942B0484E294
:1014C00091E00E941004F7FE03C0F194E194F1084A
:1014D00029E9E2162AE3F20694F417FF03C01195F6
:1014E0000195110909391A4354F477FE03C0719428
:1014F0006194710821E262162EE4720624F08FE9ED
:1015000091E00E941D040E94DD016B017C0184EFCB
:10151000882E99249394A12CB12C0E94DD016C1982
:101520007D098E099F09683E734081059105A8F3E6
:1015300081E0881A9108A108B10828EEC20E23E0C4
:10154000D21EE11CF11C81149104A104B10429F7FD
:101550004114510409F451CF0E94EE00882309F48C
:101560004CCF0E94000049CFA1E21A2EAA1BBB1B40
:10157000FD010DC0AA1FBB1FEE1FFF1FA217B3075F
:10158000E407F50720F0A21BB30BE40BF50B661F75
:10159000771F881F991F1A9469F760957095809539
:1015A00090959B01AC01BD01CF010895EE0FFF1F87
:1015B0000590F491E02D0994F894FFCF000000000D
:1015C00024018400B1007101E200C000D4000000D9
:1015D0000000DE03B1030D048703AA039703880309
:1015E0000D0A00496E697469616C697A696E6720D9
:1015F0004D5055363035302E2E2E004D505536304C
:10160000353020636F6E6E656374696F6E2066613E
:10161000696C65642E004D50553630353020636F4F
:101620006E6E65637465642073756363657373665A
:10163000756C6C792E00416363656C20583A20000C
:10164000207C20593A2000207C205A3A2000207C1F
:101650007C204779726F20583A2000E29AA0EFB8B8
:101660008F20456D657267656E637920416C657288
:10167000743A2053756464656E204D6F76656D65B0
:0E1680006E7420446574656374656421000017
:107E0000112484B714BE81FFF0D085E080938100F7
:107E100082E08093C00088E18093C10086E0809377
:107E2000C20080E18093C4008EE0C9D0259A86E02C
:107E300020E33CEF91E0309385002093840096BBD3
:107E4000B09BFECF1D9AA8958150A9F7CC24DD24C4
:107E500088248394B5E0AB2EA1E19A2EF3E0BF2EE7
:107E6000A2D0813461F49FD0082FAFD0023811F036
:107E7000013811F484E001C083E08DD089C08234E0
:107E800011F484E103C0853419F485E0A6D080C0E4
:107E9000853579F488D0E82EFF2485D0082F10E0AE
:107EA000102F00270E291F29000F111F8ED06801E7
:107EB0006FC0863521F484E090D080E0DECF843638
:107EC00009F040C070D06FD0082F6DD080E0C81688
:107ED00080E7D80618F4F601B7BEE895C0E0D1E017
:107EE00062D089930C17E1F7F0E0CF16F0E7DF06D8
:107EF00018F0F601B7BEE89568D007B600FCFDCFD4
:107F0000A601A0E0B1E02C9130E011968C91119780
:107F100090E0982F8827822B932B1296FA010C0160
:107F200087BEE89511244E5F5F4FF1E0A038BF0790
:107F300051F7F601A7BEE89507B600FCFDCF97BE46
:107F4000E89526C08437B1F42ED02DD0F82E2BD052
:107F50003CD0F601EF2C8F010F5F1F4F84911BD097
:107F6000EA94F801C1F70894C11CD11CFA94CF0C13
:107F7000D11C0EC0853739F428D08EE10CD085E9AC
:107F80000AD08FE07ACF813511F488E018D01DD067
:107F900080E101D065CF982F8091C00085FFFCCF94
:107FA0009093C60008958091C00087FFFCCF809118
:107FB000C00084FD01C0A8958091C6000895E0E648
:107FC000F0E098E1908380830895EDDF803219F02E
:107FD00088E0F5DFFFCF84E1DECF1F93182FE3DFCA
:107FE0001150E9F7F2DF1F91089580E0E8DFEE27F6
:047FF000FF270994CA
:027FFE00040479
:00000001FF
