:100000000C9463000C948B000C948B000C942C05C6
:100010000C942C050C942C050C948B000C948B00E8
:100020000C948B000C948B000C948B000C948B0024
:100030000C948B000C948B000C948B000C948B0014
:100040000C94E2040C948B000C94B0040C948A047D
:100050000C948B000C948B000C948B000C948B00F4
:100060000C948B000C948B0000000008000201002F
:100070000003040700000000000000000000000072
:1000800023002600290000000000240027002A0089
:1000900000000000250028002B00040404040404D0
:1000A0000404020202020202030303030303010227
:1000B00004081020408001020408102001020408F6
:1000C0001020F005050C11241FBECFEFD8E0DEBFD5
:1000D000CDBF11E0A0E0B1E0EEE3FEE102C005908B
:1000E0000D92AA37B107D9F723E0AAE7B1E001C022
:1000F0001D92A033B207E1F710E0C2E6D0E004C0E1
:100100002197FE010E94CB0EC136D107C9F70E948C
:10011000A0070C94120F0C940000AF92BF92CF92E4
:10012000DF92EF92FF920F931F93CF93DF936C01B7
:100130007B018B01040F151FEB015E01AE18BF0898
:10014000C017D10759F06991D601ED91FC9101904A
:10015000F081E02DC6010995892B79F7C501DF9162
:10016000CF911F910F91FF90EF90DF90CF90BF90B4
:10017000AF900895FC01538D448D252F30E0842FDE
:1001800090E0821B930B541710F0CF9608950197BF
:100190000895FC01918D828D981761F0A28DAE0FAC
:1001A000BF2FB11D5D968C91928D9F5F9F73928F33
:1001B00090E008958FEF9FEF0895FC01918D828D5F
:1001C000981731F0828DE80FF11D858D90E008952C
:1001D0008FEF9FEF0895FC01918D228D892F90E084
:1001E000805C9F4F821B91098F739927089587EC3C
:1001F00091E00E94EB0021E0892B09F420E0822F9E
:10020000089580E090E0892B29F00E94F700811189
:100210000C9400000895FC01A48DA80FB92FB11D06
:10022000A35ABF4F2C91848D90E001968F7399272C
:10023000848FA689B7892C93A089B1898C9183700A
:1002400080648C93938D848D981306C00288F38903
:10025000E02D80818F7D80830895EF92FF920F9330
:100260001F93CF93DF93EC0181E0888F9B8D8C8D62
:1002700098131AC0E889F989808185FF15C09FB756
:10028000F894EE89FF896083E889F9898081837019
:10029000806480839FBF81E090E0DF91CF911F91C8
:1002A0000F91FF90EF900895F62E0B8D10E00F5FE9
:1002B0001F4F0F731127E02E8C8D8E110CC00FB6BF
:1002C00007FCFACFE889F989808185FFF5CFCE0157
:1002D0000E940B01F1CFEB8DEC0FFD2FF11DE35AC6
:1002E000FF4FF0829FB7F8940B8FEA89FB898081DA
:1002F0008062CFCFCF93DF93EC01888D8823B9F054
:10030000AA89BB89E889F9898C9185FD03C0808120
:1003100086FD0DC00FB607FCF7CF8C9185FFF2CF9D
:10032000808185FFEDCFCE010E940B01E9CFDF91E7
:10033000CF9108952FB7F8946091BF017091C001DB
:100340008091C1019091C2012FBF0895CF93DF9397
:10035000EC018A859B85AC85BD858E839F83A887AC
:10036000B9870E949A016A837B838C839D8381E095
:1003700089838883DF91CF910895CF93DF93EC0138
:100380008E819F81A885B9858A839B83AC83BD8339
:100390000E949A016A877B878C879D8781E0898389
:1003A0008883DF91CF9108952091C5013091C601D6
:1003B0002817390771F49091C3018091C4019817EF
:1003C00041F0E091C301F0E0E658FE4F808190E0FB
:1003D00008958FEF9FEF08950895EF92FF920F9386
:1003E0001F93CF93DF93DC015C96ED90FC905D97BB
:1003F000E114F10479F481E090E013969C938E93DC
:10040000129790E080E0DF91CF911F910F91FF90C4
:10041000EF9008955196ED91FC91529750968C91E2
:100420005097982F90950FB75E962C915E97122F4C
:10043000127021FD6095F8942081112319F1282B69
:100440002083E7012197F1F728E0462F50E0308123
:1004500060FF1AC0382B3083E7012197F1F7BA010A
:1004600075956795215089F7112381F08081892343
:1004700080830FBF5C968D919C910197F1F781E08D
:1004800090E0C1CF2923DCCF3923E5CF9081892BA0
:10049000EFCF2091C5013091C6012817390761F4CB
:1004A0008091C4012091C30190E0805C9F4F821B2A
:1004B00091098F739927089590E080E00895209125
:1004C000C5013091C60128173907B9F49091C301CD
:1004D0008091C401981789F0E091C301F0E0E658DB
:1004E000FE4F80812091C30130E02F5F3F4F2F737B
:1004F00033272093C30190E008958FEF9FEF089575
:1005000090E080E00895FC0101900020E9F7319728
:10051000AF01481B590BBC0187EC91E00C948D0096
:100520008F929F92AF92BF920F931F93CF93DF93BF
:10053000CDB7DEB7A1970FB6F894DEBF0FBECDBF23
:1005400019A2423008F44AE08E010F5D1F4F842E3D
:10055000912CB12CA12CA50194010E94A90EE62F8B
:10056000B901CA01EA30F4F4E05DD801EE938D01DF
:10057000232B242B252B79F790E080E0109719F09E
:10058000CD010E948302A1960FB6F894DEBF0FBE84
:10059000CDBFDF91CF911F910F91BF90AF909F90F2
:1005A0008F900895E95CE1CF4F925F926F927F92B6
:1005B0008F929F92AF92BF92CF92DF92EF92FF9273
:1005C0000F931F93CF936B017C01742EAC019B01A1
:1005D0000E94940E882399F084E291E0CF911F91BC
:1005E0000F91FF90EF90DF90CF90BF90AF909F90D2
:1005F0008F907F906F905F904F900C948302460194
:100600005701E894B7F82FEF3FEF4FE75FE7C501D9
:10061000B4010E94940E81110DC02FEF3FEF4FE700
:100620005FE7C501B4010E94CA0C18161CF488E2E9
:1006300091E0D4CF2FEF3FEF4FE75FE4C701B60162
:100640000E94220E18161CF48CE291E0C7CF2FEF07
:100650003FEF4FE75FECC701B6010E94CA0C87FD70
:10066000F3CF20E030E0A901C701B6010E94CA0C17
:1006700010E000E087FF0AC06DE287EC91E00E9485
:100680002D018C01F7FAF094F7F8F094C0E060E0E7
:1006900070E080E09FE37C1641F020E030E040E233
:1006A00051E40E94CF0CCF5FF6CFA70196010E94C4
:1006B0005E0C2B013C010E94410D4B015C014AE0A4
:1006C0000E9490027C01E00EF11ECC23C1F1C50115
:1006D000B4010E94700D9B01AC01C301B2010E94E4
:1006E0005D0C4B015C016EE287EC91E00E942D01F4
:1006F000E80EF91EC15018F120E030E040E251E46C
:10070000C501B4010E94270E2B013C010E94410D3E
:100710004B01B12CA12C4AE0C501B4010E9490020A
:10072000E80EF91EC501B4010E94700D9B01AC01D9
:10073000C301B2010E945D0C4B015C01DBCFC7011C
:10074000CF911F910F91FF90EF90DF90CF90BF90CE
:10075000AF909F908F907F906F905F904F90089593
:100760002F923F924F925F926F927F928F929F92C1
:10077000AF92BF92CF92DF92EF92FF920F931F93AF
:10078000CF93DF93D82FC92F8B010E94210C24E631
:1007900030E040E050E00E94A90E49019B01AC010D
:1007A00060E876E988E990E00E94990E6B017C018F
:1007B000F80191828082ED2FFC2F2191822F022E51
:1007C000000C990BC0970A97C0F32E3239F51F0120
:1007D00080E8882E86E9982E88E9A82EB12C9AE028
:1007E000492E512C612C712CF101C1911F010C2E4D
:1007F000000CDD0BE097CA30D10580F4C501B401CF
:10080000A30192010E94A90E49015A01DE010E9432
:10081000DC0EC60ED71EE81EF91EE6CFA5E0B0E03E
:10082000A70196010E94D10E6F5F7F4F8F4F9F4FA0
:1008300023E030E040E050E00E94A90EF80122835E
:100840003383448355831682DF91CF911F910F919B
:10085000FF90EF90DF90CF90BF90AF909F908F90E0
:100860007F906F905F904F903F902F9008951F93CF
:10087000CF93DF93EC0118811D3209F42196CE014C
:100880000E94210C9B01AC01A4E6B0E00E94D10EB5
:10089000AB01BC01FE012991822F022E000C990BA5
:1008A000C0970A97B8F32E3231F58181082E000CDB
:1008B000990BC0978A309105F0F4AAE0A89F9001A7
:1008C000A99F300D1124C901330FAA0BBB0B480F90
:1008D000591F6A1F7B1F8281082E000C990BC0973D
:1008E0008A30910540F4092E000CAA0BBB0B480F6F
:1008F000591F6A1F7B1F1D3239F470956095509502
:1009000041955F4F6F4F7F4FCB01BA01DF91CF9180
:100910001F9108951F920F920FB60F9211242F93DB
:100920003F934F935F936F937F938F939F93AF9377
:10093000BF93EF93FF9387EC91E00E940B01FF912F
:10094000EF91BF91AF919F918F917F916F915F9147
:100950004F913F912F910F900FBE0F901F901895C0
:100960001F920F920FB60F9211242F938F939F9384
:10097000EF93FF93E091D701F091D8018081E0914E
:10098000DD01F091DE0182FD1BC090818091E001CC
:100990008F5F8F732091E101821741F0E091E001B8
:1009A000F0E0E953FE4F958F8093E001FF91EF91C6
:1009B0009F918F912F910F900FBE0F901F901895C0
:1009C0008081F4CF1F920F920FB60F9211242F93B4
:1009D0003F938F939F93AF93BF938091BF0190916B
:1009E000C001A091C101B091C2013091BE0123E0CC
:1009F000230F2D3758F50196A11DB11D2093BE017F
:100A00008093BF019093C001A093C101B093C20134
:100A10008091BA019091BB01A091BC01B091BD0140
:100A20000196A11DB11D8093BA019093BB01A093C3
:100A3000BC01B093BD01BF91AF919F918F913F9148
:100A40002F910F900FBE0F901F90189526E8230F3F
:100A50000296A11DB11DD2CF1F920F920FB60F9219
:100A600011242F933F934F935F936F937F938F93B3
:100A70009F93AF93BF93EF93FF93E091C501F091E4
:100A8000C601309749F0A685B7858585968D91FF7B
:100A900014C09C918923A1F4FF91EF91BF91AF9174
:100AA0009F918F917F916F915F914F913F912F9186
:100AB0000F900FBE0F901F9018959C91892361F79E
:100AC000A389B4899C918589809589238C93868993
:100AD00097890197F1F7608D718DA685B78555854A
:100AE00038E020E0CB010197F1F7822F90E0959557
:100AF0008795282F4C91452309F02068315091F7B4
:100B0000868D81FD20958091C40190E001968F73C0
:100B100099273091C301381799F0A091C401B0E032
:100B2000A658BE4F2C938093C401828D938D01975C
:100B3000F1F7A389B4898C919589892B8C93ACCFDB
:100B4000868D8160868FF1CF90E0FC01E859FF4FE0
:100B50002491FC01E255FF4F3491FC01E656FF4F12
:100B6000E491EE23C9F0222339F0233001F1A8F4F7
:100B7000213019F1223029F1F0E0EE0FFF1FE0578C
:100B8000FF4FA591B4918FB7F894EC91611126C0F5
:100B900030953E233C938FBF08952730A9F028302D
:100BA000C9F0243049F7809180008F7D03C0809187
:100BB00080008F7780938000DFCF84B58F7784BDEE
:100BC000DBCF84B58F7DFBCF8091B0008F77809392
:100BD000B000D2CF8091B0008F7DF9CF3E2BDACF1D
:100BE0000F931F93CF93DF931092CA011092C90104
:100BF00088EE93E0A0E0B0E08093CB019093CC012D
:100C0000A093CD01B093CE0124E031E03093C80130
:100C10002093C70125EC30E03093D4012093D30119
:100C200024EC30E03093D6012093D50120EC30E065
:100C30003093D8012093D70121EC30E03093DA01D2
:100C40002093D90122EC30E03093DC012093DB01CA
:100C500026EC30E03093DE012093DD011092E001BC
:100C60001092E1011092E2011092E301109214033C
:100C7000109213038093150390931603A093170308
:100C8000B093180386E191E09093120380931103CF
:100C9000109228031092270310922A03109229031E
:100CA00010922C0310922B0310922E0310922D03FE
:100CB00060912F036E7F6D7F60932F036695617047
:100CC00081E0682783E00E94A40541EB50E0FA012F
:100CD00064918DE990E0FC012491222399F030E0A9
:100CE000220F331FF901EA57FF4FA591B491F90183
:100CF000E057FF4F259134912FB7F8943C91632B27
:100D00006C932FBFFA01449140932103FC0184911D
:100D1000E82FF0E0EE0FFF1FE057FF4F8591949111
:100D2000909323038093220302EB10E0F8012491B7
:100D3000CEE9D0E0FE0184918823C9F090E0880FCD
:100D4000991FFC01EA57FF4FA591B491FC01E057B0
:100D5000FF4F459154913FB7F8949C91822F809515
:100D600098239C93FA019081892380833FBF8091CF
:100D70002F0381FD04C061E084E00E94A40584E0AB
:100D800080931D03F801049100931E03FE01C4919A
:100D9000EC2FF0E0EE0FFF1FE458FF4F8591949188
:100DA0009093200380931F031092640210926502B7
:100DB0001092670210926602109268021092690205
:100DC00010926A0210926B0210926C0210926E02E4
:100DD00010926D0210926F021092700210927102C6
:100DE00010927202109273021092750210927402A5
:100DF0001092760210927702109278021092790285
:100E000010927A0210927C0210927B0210927D0264
:100E100010927E0210927F02109280021092810244
:100E20001092860210928702109288021092890214
:100E300010928A0210928B021092940210929502E4
:100E400010929602109297021092980210929902B4
:100E50001092A2021092A3021092A8021092A9026C
:100E60001092AA021092AB021092B0021092B1023C
:100E70001092B6021092B7021092B8021092B90204
:100E80001092BE021092BF021092C4021092C502CC
:100E90001092C6021092C7021092CC021092CD029C
:100EA0001092D2021092D3021092D4021092D50264
:100EB0001092DA021092DB021092E0021092E1022C
:100EC0001092E2021092E3021092E8021092E902FC
:100ED00082E08093F9021092FA021092FB021092C3
:100EE000FC021092FE021092FD021092000310927A
:100EF000FF0210920103109202031092030310925A
:100F00000403109205031092060310920703109237
:100F100008031092090310920A0310920B03109217
:100F20000C0310920D0310920E0310920F031092F7
:100F300010031092EA02DF91CF911F910F91089553
:100F4000789484B5826084BD84B5816084BD85B5A4
:100F5000826085BD85B5816085BD80916E008160B0
:100F600080936E0010928100809181008260809356
:100F70008100809181008160809381008091800058
:100F80008160809380008091B10084608093B10083
:100F90008091B00081608093B00080917A0084607D
:100FA00080937A0080917A00826080937A008091A9
:100FB0007A00816080937A0080917A0080688093C3
:100FC0007A001092C100E091D701F091D80182E03F
:100FD0008083E091D301F091D4011082E091D5019A
:100FE000F091D6018FEC80831092DF01E091DB015C
:100FF000F091DC0186E08083E091D901F091DA0183
:10100000808180618083E091D901F091DA01808153
:1010100088608083E091D901F091DA018081806855
:101020008083E091D901F091DA0180818F7D808306
:1010300010922C0310922B0310922A031092290372
:1010400010922803109227038DE991E090932E03CC
:1010500080932D0390911D03963108F047C02DEB2E
:1010600030E030932803209327032BE931E03093BD
:101070002A03209329032CE231E030932C032093A0
:101080002B032091680084E0983048F031E09E30D6
:1010900008F430E081E001C0880F3A95EAF7822B2E
:1010A000809368002DE630E0983050F02BE630E079
:1010B0009E3030F02CE630E0963110F030E020E049
:1010C0003093250320932403292F30E0983008F033
:1010D00030C181E001C0880F9A95EAF7809326031A
:1010E00080912D0390912E030197F1F780912B03AE
:1010F00090912C03892B49F1E091C501F091C60133
:1011000023E0E131F20709F1309739F0A389B4897E
:101110009C918589809589238C9380912F038E7F64
:1011200080932F031092C4011092C30181E193E0D8
:101130009093C6018093C501E0912403F0912503AB
:10114000808190912603892B808380E391E00E9427
:10115000830287E491E00E948302FF24F39480E0FD
:10116000682E80E0782E92E0E92E01E081E193E0A4
:101170000E944902181619060CF033C381E193E06E
:101180000E945F02182F8091010390910203A091A9
:101190000303B09104030196A11DB11D80930103C7
:1011A00090930203A0930303B0930403143209F451
:1011B000F7C2E091FB0215320CF0C8C01A3019F0EA
:1011C0001D3009F0FAC2EF3008F03DC1F0E0E65101
:1011D000FD4F10828091E902882309F4A9C1209172
:1011E000EA02822F022E000C990B3FEB320F3630B1
:1011F00008F0B8C0C7978295807F9091EB02292FA5
:10120000092E000C330B4FEB490F463008F0B2C0EB
:1012100027533109820F9091E802891301C180910F
:101220000D0390910E03A0910F03B091100301964E
:10123000A11DB11D80930D0390930E03A0930F0386
:10124000B09310038091FC02882399F080910503EC
:1012500090910603A0910703B09108030196A11D88
:10126000B11D8093050390930603A0930703B093E9
:101270000803C091F902CC2309F485C0C130A1F55F
:1012800086E892E00E94BD0184E992E00E94BD01DF
:101290008091FC02882341F187E0E4E7F2E0A6E6D2
:1012A000B2E001900D928A95E1F787E0EBE7F2E07A
:1012B000ADE6B2E001900D928A95E1F70E949A01A5
:1012C00060938202709383028093840290938502DC
:1012D000C0936502C093640282EA92E00E94A60174
:1012E00080EB92E00E94A601C091FF02D091000322
:1012F000209709F4A8C0E091FF02F091000366A1D5
:1013000077A18EA19FA10E94F30E892B09F09BC0AB
:10131000BE01CE0140960E94FC0E0E949A0168A375
:1013200079A38AA39BA3FDA2FCA20AA4DBA5C02DDE
:10133000DFCF9E3040F42850310981E001C0880F92
:101340002A95EAF7CBCE2E503109F7CF1A3209F49D
:101350003ACF1C3209F031C28091E8028127809394
:10136000E80231CF2156263018F48755910943CF32
:10137000C09741CF9156963018F4275531094ACF7E
:101380002053310947CF84E992E00E94BD0180914A
:10139000FC02882321F187E0E4E7F2E0A6E6B2E070
:1013A00001900D928A95E1F787E0EBE7F2E0ADE678
:1013B000B2E001900D928A95E1F70E949A01609344
:1013C000820270938302809384029093850200933B
:1013D0006502009364028EEB92E00E94A601809168
:1013E000D6029091D702A091D802B091D9028093F1
:1013F000D2029093D302A093D402B093D5020E945C
:101400009A016093CE027093CF028093D0029093A2
:10141000D1020093CD020093CC028AED92E062CF1C
:101420008091090390910A03A0910B03B0910C03E2
:101430000196A11DB11D8093090390930A03A09307
:101440000B03B0930C038091FA028F5F8093FA0232
:101450001092FB0281E01A3209F080E08093E902E9
:1014600080916502882309F481CE82E691E00E9492
:101470008302109265026091680270916902809106
:101480006A0290916B020E94700D28E23BE64EE6E4
:101490005EE40E94CF0C4B015C016091660270918A
:1014A000670290E080E00E94700D9B01AC01C501D5
:1014B000B4010E945E0C20916C022111905846E00C
:1014C0000E94D40287E491E00E9483028DE691E0BD
:1014D0000E9483021092650260916F027091700207
:1014E00080917102909172020E94700D28E23BE699
:1014F0004EE65EE40E94CF0C4B015C0160916D02F0
:1015000070916E0290E080E00E94700D9B01AC0132
:10151000C501B4010E945E0C209173022111905804
:1015200046E00E94D40287E491E00E9483021ECE2E
:101530009091FA02911145C06AE471E08AEE92E05E
:101540000E94F30E892B41F060E571E08AEE92E093
:101550000E94F30E892BF9F40093F9028091FD02A9
:101560009091FE02909300038093FF02C090FF02CF
:10157000D0900003C114D10409F465CF6AEE72E083
:10158000F60186A197A10E94F30E97FF36C1F601DE
:1015900082A593A5E7CF66E571E08AEE92E00E940E
:1015A000F30E892B41F06CE571E08AEE92E00E9427
:1015B000F30E892B19F41092F902D0CFE092F902C0
:1015C000CDCFE091F902E23009F448C08091EA02FF
:1015D000882309F443C020E2E29FF0011124E92BA3
:1015E0003197E932F10508F039C0E750F54F0C9416
:1015F000CB0E220B630B6A0B710B740BA20BA90BA6
:10160000B60BC30B2E0B2E0B2E0B2E0B2E0B2E0BF5
:101610002E0B2E0B2E0B2E0B2E0B2E0B2E0B2E0B02
:101620002E0B2E0B2E0B2E0B2E0B2E0B2E0B2E0BF2
:101630002E0B220B5D0B630B6A0B710B740B7B0B78
:10164000880B950B8AEE92E00E94370460939A0211
:1016500070939B0280939C0290939D02C090FF0226
:10166000D0900003B090FA02C114D10409F4EBCE7B
:10167000E091FF02F091000366A177A1F60186A137
:1016800097A10E94F30E892B09F0DDCEF60120A56B
:1016900031A58B2D90E0821793070CF4D4CE281738
:1016A000390739F440E150E06AEE72E0C6010E9469
:1016B000030FF601C2A4D3A4D5CF91E0813409F47D
:1016C00045C090E043C064E772E08AEE92E00E9479
:1016D000B003C4CF91E0833509F090E090937A0293
:1016E000BDCF6BE772E0F1CF91E0873509F090E074
:1016F00090938102B3CF8AEE92E00E943704609308
:10170000AC027093AD028093AE029093AF02A6CF6D
:101710008AEE92E00E9437046093BA027093BB0293
:101720008093BC029093BD0299CF8AEE92E00E9412
:10173000210C60938C0270938D0280938E029093A3
:101740008F028CCF91E081330CF4BBCF9093FC02DD
:1017500085CF8AEE92E00E94210C6093D6027093AE
:10176000D7028093D8029093D90278CF8AEE92E084
:101770000E9437046093E4027093E5028093E602CE
:101780009093E7026BCF8AEE92E00E943704609359
:10179000C8027093C9028093CA029093CB025ECFB5
:1017A0001092FB021092FA021092E802E092F90203
:1017B0001092E9021092FC0253CEEE3040F481E028
:1017C0008E0F8093FB02F0E0E651FD4F1083809175
:1017D000E902811145CE8091E80218271093E802B2
:1017E0003FCE6114710409F4C1CC0E94F700882334
:1017F00009F4BCCC0E940000B9CC892B09F423CE9B
:10180000109200031092FF021ECE86E191E09093A9
:101810001203809311038091C5019091C6018151FB
:10182000934071F4E0912403F0912503908180911D
:1018300026038095892380831092C6011092C501EA
:1018400008951F93FC0199278827BC01E894119102
:101850001032E9F3193010F01E30C8F31B3251F08A
:101860001D3249F4689406C00E94480C610F711D36
:10187000811D911D119110531A30B0F33EF49095D3
:101880008095709561957F4F8F4F9F4F1F91089561
:10189000592F482F372F262F660F771F881F991F24
:1018A000660F771F881F991F620F731F841F951F74
:1018B000660F771F881F991F08955058BB27AA27C6
:1018C0000E94750C0C94E80D0E94DA0D38F00E940D
:1018D000E10D20F039F49F3F19F426F40C94D70D54
:1018E0000EF4E095E7FB0C94D10DE92F0E94F90D61
:1018F00058F3BA17620773078407950720F079F445
:10190000A6F50C941B0E0EF4E0950B2EBA2FA02D0D
:101910000B01B90190010C01CA01A0011124FF279C
:10192000591B99F0593F50F4503E68F11A16F04097
:10193000A22F232F342F4427585FF3CF4695379596
:101940002795A795F0405395C9F77EF41F16BA0B5B
:10195000620B730B840BBAF09150A1F0FF0FBB1F09
:10196000661F771F881FC2F70EC0BA0F621F731F52
:10197000841F48F4879577956795B795F7959E3FAF
:1019800008F0B0CF9395880F08F09927EE0F979540
:10199000879508950E94AD0D08F481E008950E9496
:1019A000E30C0C94E80D0E94E10D58F00E94DA0D52
:1019B00040F029F45F3F29F00C94D10D51110C94A3
:1019C0001C0E0C94D70D0E94F90D68F39923B1F306
:1019D000552391F3951B550BBB27AA276217730755
:1019E000840738F09F5F5F4F220F331F441FAA1FE9
:1019F000A9F335D00E2E3AF0E0E832D091505040A5
:101A0000E695001CCAF72BD0FE2F29D0660F771F52
:101A1000881FBB1F261737074807AB07B0E809F038
:101A2000BB0B802DBF01FF2793585F4F3AF09E3FBD
:101A3000510578F00C94D10D0C941C0E5F3FE4F32B
:101A4000983ED4F3869577956795B795F7959F5F00
:101A5000C9F7880F911D9695879597F90895E1E04C
:101A6000660F771F881FBB1F621773078407BA07AB
:101A700020F0621B730B840BBA0BEE1F88F7E09506
:101A800008950E94010E88F09F5798F0B92F99276A
:101A9000B751B0F0E1F0660F771F881F991F1AF059
:101AA000BA95C9F714C0B13091F00E941B0EB1E095
:101AB00008950C941B0E672F782F8827B85F39F094
:101AC000B93FCCF3869577956795B395D9F73EF4F2
:101AD00090958095709561957F4F8F4F9F4F08959A
:101AE000E89409C097FB3EF49095809570956195B8
:101AF0007F4F8F4F9F4F9923A9F0F92F96E9BB276E
:101B00009395F695879577956795B795F111F8CFE9
:101B1000FAF4BB0F11F460FF1BC06F5F7F4F8F4F54
:101B20009F4F16C0882311F096E911C0772321F04A
:101B30009EE8872F762F05C0662371F096E8862FE2
:101B400070E060E02AF09A95660F771F881FDAF739
:101B5000880F9695879597F90895990F0008550F66
:101B6000AA0BE0E8FEEF16161706E807F907C0F023
:101B700012161306E407F50798F0621B730B840B2B
:101B8000950B39F40A2661F0232B242B252B21F405
:101B900008950A2609F4A140A6958FEF811D811DA5
:101BA000089597F99F6780E870E060E008959FEFDF
:101BB00080EC089500240A941616170618060906E4
:101BC000089500240A9412161306140605060895B3
:101BD000092E0394000C11F4882352F0BB0F40F43B
:101BE000BF2B11F460FF04C06F5F7F4F8F4F9F4F7B
:101BF000089557FD9058440F551F59F05F3F71F0FD
:101C00004795880F97FB991F61F09F3F79F0879563
:101C10000895121613061406551FF2CF4695F1DFEC
:101C200008C0161617061806991FF1CF869571057C
:101C3000610508940895E894BB2766277727CB01B0
:101C400097F908950E94AD0D08F48FEF08950E9452
:101C50003A0E0C94E80D0E94DA0D38F00E94E10D66
:101C600020F0952311F00C94D10D0C94D70D112474
:101C70000C941C0E0E94F90D70F3959FC1F3950F03
:101C800050E0551F629FF001729FBB27F00DB11D00
:101C9000639FAA27F00DB11DAA1F649F6627B00D90
:101CA000A11D661F829F2227B00DA11D621F739F79
:101CB000B00DA11D621F839FA00D611D221F749F87
:101CC0003327A00D611D231F849F600D211D822FCE
:101CD000762F6A2F11249F5750409AF0F1F08823F5
:101CE0004AF0EE0FFF1FBB1F661F771F881F915022
:101CF0005040A9F79E3F510580F00C94D10D0C94F3
:101D00001C0E5F3FE4F3983ED4F386957795679574
:101D1000B795F795E7959F5FC1F7FE2B880F911D4B
:101D20009695879597F908950E94AD0D880B990BAC
:101D30000895DB018F939F930E94D10EBF91AF91C5
:101D4000A29F800D911DA39F900DB29F900D112415
:101D50000895A1E21A2EAA1BBB1BFD010DC0AA1FEC
:101D6000BB1FEE1FFF1FA217B307E407F50720F004
:101D7000A21BB30BE40BF50B661F771F881F991F7F
:101D80001A9469F760957095809590959B01AC01C8
:101D9000BD01CF010895EE0FFF1F0590F491E02DD6
:101DA00009940E94E40EA59F900DB49F900DA49FEE
:101DB000800D911D11240895B7FF0C94D10E0E943F
:101DC000D10E821B930B0895A29FB001B39FC00157
:101DD000A39F700D811D1124911DB29F700D811D57
:101DE0001124911D0895FB01DC018D910190801952
:101DF0000110D9F3990B0895FB01DC0101900D92BC
:101E00000020E1F70895FB01DC014150504048F00B
:101E100001900D920020C9F701C01D924150504021
:101E2000E0F7089510E0C2E6D0E004C0FE010E9491
:0E1E3000CB0E2196C336D107C9F7F894FFCF29
:101E3E00000000002D018D00BA007A01EB00C900F0
:101E4E00DD0000000000ED018D008002EC01490272
:101E5E005F02D4016E616E00696E66006F76660079
:101E6E00475053204D6F64756C6520496E697469D7
:101E7E00616C697A6564000D0A004750524D43004B
:101E8E00474E524D4300475047474100474E474744
:101E9E0041004C617469747564653A20004C6F6E34
:0A1EAE006769747564653A2000004E
:00000001FF
