:100000000C9462000C948A000C948A000C948A0070
:100010000C948A000C948A000C948A000C948A0038
:100020000C948A000C948A000C948A000C948A0028
:100030000C948A000C948A000C948A000C948A0018
:100040000C948B030C948A000C9459030C94330386
:100050000C948A000C948A000C948A000C948A00F8
:100060000C948A000C948A000000000024002700F1
:100070002A000000000023002600290000000000E4
:10008000250028002B0004040404040404040202D4
:100090000202020203030303030301020408102007
:1000A0004080010204081020010204081020000012
:1000B0000008000201000003040700000000000027
:1000C0000000940511241FBECFEFD8E0DEBFCDBFE6
:1000D00011E0A0E0B1E0EEE4F0E102C005900D9285
:1000E000AA34B107D9F721E0AAE4B1E001C01D921A
:1000F000A03FB207E1F710E0C2E6D0E004C02197CC
:10010000FE010E941F08C136D107C9F70E941A04D8
:100110000C9425080C940000E7EBF0E02491E3EA4E
:10012000F0E09491EFE8F0E0E491EE23C9F02223AF
:1001300039F0233001F1A8F4213019F1223029F1EE
:10014000F0E0EE0FFF1FE458FF4FA591B4912FB7D9
:10015000F894EC91811126C090959E239C932FBF1B
:1001600008952730A9F02830C9F0243049F72091AC
:1001700080002F7D03C0209180002F772093800086
:10018000DFCF24B52F7724BDDBCF24B52F7DFBCF68
:100190002091B0002F772093B000D2CF2091B000F3
:1001A0002F7DF9CF9E2BDACFAF92BF92CF92DF9205
:1001B000EF92FF920F931F93CF93DF936C017B011C
:1001C0008B01040F151FEB015E01AE18BF08C017AD
:1001D000D10759F06991D601ED91FC910190F08120
:1001E000E02DC6010995892B79F7C501DF91CF91E3
:1001F0001F910F91FF90EF90DF90CF90BF90AF9045
:100200000895FC01538D448D252F30E0842F90E01C
:10021000821B930B541710F0CF9608950197089501
:10022000FC01918D828D981761F0A28DAE0FBF2FCA
:10023000B11D5D968C91928D9F5F9F73928F90E020
:1002400008958FEF9FEF0895FC01918D828D98178F
:1002500031F0828DE80FF11D858D90E008958FEFCC
:100260009FEF0895FC01918D228D892F90E0805C95
:100270009F4F821B91098F739927089583E591E021
:100280000E94320121E0892B09F420E0822F089599
:1002900080E090E0892B29F00E943E0181110C94AE
:1002A00000000895FC01A48DA80FB92FB11DA35A19
:1002B000BF4F2C91848D90E001968F739927848F86
:1002C000A689B7892C93A089B1898C9183708064A9
:1002D0008C93938D848D981306C00288F389E02D4A
:1002E00080818F7D80830895EF92FF920F931F93FB
:1002F000CF93DF93EC0181E0888F9B8D8C8D9813D9
:100300001AC0E889F989808185FF15C09FB7F894E4
:10031000EE89FF896083E889F98980818370806430
:1003200080839FBF81E090E0DF91CF911F910F917B
:10033000FF90EF900895F62E0B8D10E00F5F1F4F8A
:100340000F731127E02E8C8D8E110CC00FB607FC99
:10035000FACFE889F989808185FFF5CFCE010E9427
:100360005201F1CFEB8DEC0FFD2FF11DE35AFF4F42
:10037000F0829FB7F8940B8FEA89FB8980818062B5
:10038000CFCFCF93DF93EC01888D8823B9F0AA8972
:10039000BB89E889F9898C9185FD03C0808186FD40
:1003A0000DC00FB607FCF7CF8C9185FFF2CF80818F
:1003B00085FFEDCFCE010E945201E9CFDF91CF91B1
:1003C00008953FB7F89480914F0190915001A0910A
:1003D0005101B091520126B5A89B05C02F3F19F0DD
:1003E0000196A11DB11D3FBFBA2FA92F982F8827B5
:1003F000BC01CD01620F711D811D911D42E0660F90
:10040000771F881F991F4A95D1F70895FC01019025
:100410000020E9F73197AF01481B590BBC0183E578
:1004200091E00C94D4008F929F92AF92BF920F9361
:100430001F93CF93DF93CDB7DEB7A1970FB6F89494
:10044000DEBF0FBECDBF19A2423008F44AE08E01D4
:100450000F5D1F4F842E912CB12CA12CA50194016E
:100460000E94FD07E62FB901CA01EA30F4F4E05D0D
:10047000D801EE938D01232B242B252B79F790E0C7
:1004800080E0109719F0CD010E940602A1960FB6E8
:10049000F894DEBF0FBECDBFDF91CF911F910F91BA
:1004A000BF90AF909F908F900895E95CE1CF4F92FD
:1004B0005F926F927F928F929F92AF92BF92CF92F4
:1004C000DF92EF92FF920F931F93CF936B017C010A
:1004D000742EAC019B010E94F807882399F082E1F9
:1004E00091E0CF911F910F91FF90EF90DF90CF900F
:1004F000BF90AF909F908F907F906F905F904F9044
:100500000C94060246015701E894B7F82FEF3FEF2D
:100510004FE75FE7C501B4010E94F80781110DC0E4
:100520002FEF3FEF4FE75FE7C501B4010E942E06B2
:1005300018161CF486E191E0D4CF2FEF3FEF4FE780
:100540005FE4C701B6010E94860718161CF48AE111
:1005500091E0C7CF2FEF3FEF4FE75FECC701B60148
:100560000E942E0687FDF3CF20E030E0A901C701ED
:10057000B6010E942E0610E000E087FF0AC06DE27F
:1005800083E591E00E9474018C01F7FAF094F7F88A
:10059000F094C0E060E070E080E09FE37C1641F002
:1005A00020E030E040E251E40E943306CF5FF6CF16
:1005B000A70196010E94C2052B013C010E94A506DD
:1005C0004B015C014AE00E9413027C01E00EF11E27
:1005D000CC23C1F1C501B4010E94D4069B01AC013A
:1005E000C301B2010E94C1054B015C016EE283E5CB
:1005F00091E00E947401E80EF91EC15018F120E04C
:1006000030E040E251E4C501B4010E948B072B01A8
:100610003C010E94A5064B01B12CA12C4AE0C5016A
:10062000B4010E941302E80EF91EC501B4010E9434
:10063000D4069B01AC01C301B2010E94C1054B016C
:100640005C01DBCFC701CF911F910F91FF90EF901D
:10065000DF90CF90BF90AF909F908F907F906F90E2
:100660005F904F9008951F920F920FB60F92112432
:100670002F933F934F935F936F937F938F939F93AA
:10068000AF93BF93EF93FF9383E591E00E945201F4
:10069000FF91EF91BF91AF919F918F917F916F915A
:1006A0005F914F913F912F910F900FBE0F901F9030
:1006B00018951F920F920FB60F9211242F938F93BC
:1006C0009F93EF93FF93E0916301F0916401808128
:1006D000E0916901F0916A0182FD1BC090818091D7
:1006E0006C018F5F8F7320916D01821741F0E09153
:1006F0006C01F0E0ED5AFE4F958F80936C01FF91F5
:10070000EF919F918F912F910F900FBE0F901F909F
:1007100018958081F4CF1F920F920FB60F9211247B
:100720002F933F938F939F93AF93BF9380914B01F0
:1007300090914C01A0914D01B0914E0130914A0130
:1007400023E0230F2D3758F50196A11DB11D2093ED
:100750004A0180934B0190934C01A0934D01B093BB
:100760004E0180914F0190915001A0915101B091A3
:1007700052010196A11DB11D80934F01909350012C
:10078000A0935101B0935201BF91AF919F918F916E
:100790003F912F910F900FBE0F901F90189526E854
:1007A000230F0296A11DB11DD2CFCF92DF92EF92FF
:1007B000FF920F931F93E82FF92F05C001501109E5
:1007C0002109310961F1908196239417B9F305C08D
:1007D000015011092109310911F1908196239413D7
:1007E000F7CFC12CD12CE12CF12C0AC08FEFC81A05
:1007F000D80AE80AF80A0C151D052E053F0579F000
:1008000080818623841791F36C2D7D2D8E2D9F2D55
:100810001F910F91FF90EF90DF90CF90089560E0CF
:1008200070E080E090E01F910F91FF90EF90DF90DB
:10083000CF900895789484B5826084BD84B581603A
:1008400084BD85B5826085BD85B5816085BD80919B
:100850006E00816080936E00109281008091810013
:10086000826080938100809181008160809381000B
:10087000809180008160809380008091B1008460CD
:100880008093B1008091B00081608093B00080912E
:100890007A00846080937A0080917A0082608093ED
:1008A0007A0080917A00816080937A0080917A004A
:1008B000806880937A001092C100E0916301F0910A
:1008C000640182E08083E0915F01F0916001108219
:1008D000E0916101F09162018FEC808310926B01D5
:1008E000E0916701F091680186E08083E091650105
:1008F000F0916601808180618083E0916501F091D3
:100900006601808188608083E0916501F0916601D5
:10091000808180688083E0916501F091660180812B
:100920008F7D8083E3EAF0E02491EFE8F0E08491AA
:10093000882399F090E0880F991FFC01E859FF4F38
:10094000A591B491FC01E458FF4F859194918FB724
:10095000F894EC91E22BEC938FBFE2EAF0E0249163
:100960006EE8262E60E0362EF10184918823C1F0D6
:1009700090E0880F991FFC01E859FF4FA591B491B1
:10098000FC01E458FF4FC591D4913FB7F8949C9176
:10099000822F809598239C939881892388833FBFD9
:1009A000C3E0D0E033E2A32EB12C40E0842E40E03F
:1009B000942E80E00E948C00CE010197F1F781E037
:1009C0000E948C00C5010197F1F780E00E948C0025
:1009D000E2EAF0E06491F1018491E82FF0E0EE0F9B
:1009E000FF1FEE58FF4F8591949100E412E42FE031
:1009F00030E0462F0E94D5036115710581059105F0
:100A000029F06F5F7F4F8F4F9F4F9F700E94D606D8
:100A100026E933E44BE05DE30E948B0720E030E001
:100A200040E05FE30E948B079B01AC0160E070E057
:100A300080EF91E40E94C1056B017C0120E030E071
:100A4000A9010E942E0687FD6BC020E030E040EF38
:100A500051E4C701B6010E948607181634F4C12C70
:100A6000D12C90EFE92E91E4F92E8EE191E00E94D5
:100A7000060242E0C701B6010E9457028BE291E0F4
:100A80000E94060282E391E00E94060220E030E02C
:100A900040EF51E4C701B6010E94330620E030E088
:100AA00048EC52E40E948B0742E00E94570284E423
:100AB00091E00E94060287E491E00E9406020E94F3
:100AC000E1012B013C0188EEC82E83E0D82EE12CF9
:100AD000F12C0E94E1016419750986099709683EA5
:100AE000734081059105A8F3F1E0CF1AD108E10820
:100AF000F10828EE420E23E0521E611C711CC11445
:100B0000D104E104F10429F78114910409F451CFCF
:100B10000E943E01882309F44CCF0E94000049CF77
:100B2000C12CD12C7601A1CFE3E5F1E01382128232
:100B300088EE93E0A0E0B0E084839583A683B7833A
:100B400084E091E09183808385EC90E095878487B1
:100B500084EC90E09787868780EC90E0918B808B87
:100B600081EC90E0938B828B82EC90E0958B848B70
:100B700086EC90E0978B868B118E128E138E148EDE
:100B800008955058BB27AA270E94D9050C944C07FA
:100B90000E943E0738F00E94450720F039F49F3F3D
:100BA00019F426F40C943B070EF4E095E7FB0C9443
:100BB0003507E92F0E945D0758F3BA1762077307DC
:100BC0008407950720F079F4A6F50C947F070EF4BE
:100BD000E0950B2EBA2FA02D0B01B90190010C014D
:100BE000CA01A0011124FF27591B99F0593F50F465
:100BF000503E68F11A16F040A22F232F342F4427BD
:100C0000585FF3CF469537952795A795F0405395B4
:100C1000C9F77EF41F16BA0B620B730B840BBAF084
:100C20009150A1F0FF0FBB1F661F771F881FC2F7EF
:100C30000EC0BA0F621F731F841F48F48795779503
:100C40006795B795F7959E3F08F0B0CF9395880FBD
:100C500008F09927EE0F9795879508950E94110740
:100C600008F481E008950E9447060C944C070E9406
:100C7000450758F00E943E0740F029F45F3F29F0F5
:100C80000C94350751110C9480070C943B070E947B
:100C90005D0768F39923B1F3552391F3951B550B29
:100CA000BB27AA2762177307840738F09F5F5F4F3F
:100CB000220F331F441FAA1FA9F335D00E2E3AF07E
:100CC000E0E832D091505040E695001CCAF72BD096
:100CD000FE2F29D0660F771F881FBB1F26173707E7
:100CE0004807AB07B0E809F0BB0B802DBF01FF2719
:100CF00093585F4F3AF09E3F510578F00C943507BA
:100D00000C9480075F3FE4F3983ED4F38695779583
:100D10006795B795F7959F5FC9F7880F911D9695D1
:100D2000879597F90895E1E0660F771F881FBB1F2D
:100D3000621773078407BA0720F0621B730B840BDA
:100D4000BA0BEE1F88F7E09508950E94650788F0BA
:100D50009F5798F0B92F9927B751B0F0E1F0660F7F
:100D6000771F881F991F1AF0BA95C9F714C0B130C0
:100D700091F00E947F07B1E008950C947F07672FE0
:100D8000782F8827B85F39F0B93FCCF386957795EF
:100D90006795B395D9F73EF49095809570956195D8
:100DA0007F4F8F4F9F4F0895E89409C097FB3EF403
:100DB00090958095709561957F4F8F4F9F4F9923A8
:100DC000A9F0F92F96E9BB279395F6958795779526
:100DD0006795B795F111F8CFFAF4BB0F11F460FFE6
:100DE0001BC06F5F7F4F8F4F9F4F16C0882311F03E
:100DF00096E911C0772321F09EE8872F762F05C052
:100E0000662371F096E8862F70E060E02AF09A95EC
:100E1000660F771F881FDAF7880F9695879597F9E1
:100E20000895990F0008550FAA0BE0E8FEEF16167B
:100E30001706E807F907C0F012161306E407F507CE
:100E400098F0621B730B840B950B39F40A2661F042
:100E5000232B242B252B21F408950A2609F4A140E5
:100E6000A6958FEF811D811D089597F99F6780E8F2
:100E700070E060E008959FEF80EC089500240A94EC
:100E80001616170618060906089500240A94121665
:100E90001306140605060895092E0394000C11F498
:100EA000882352F0BB0F40F4BF2B11F460FF04C045
:100EB0006F5F7F4F8F4F9F4F089557FD9058440F9E
:100EC000551F59F05F3F71F04795880F97FB991FA9
:100ED00061F09F3F79F08795089512161306140666
:100EE000551FF2CF4695F1DF08C0161617061806F3
:100EF000991FF1CF86957105610508940895E894CE
:100F0000BB2766277727CB0197F908950E94110721
:100F100008F48FEF08950E949E070C944C070E94DE
:100F20003E0738F00E94450720F0952311F00C94FD
:100F300035070C943B0711240C9480070E945D0731
:100F400070F3959FC1F3950F50E0551F629FF0011C
:100F5000729FBB27F00DB11D639FAA27F00DB11D35
:100F6000AA1F649F6627B00DA11D661F829F2227BE
:100F7000B00DA11D621F739FB00DA11D621F839F45
:100F8000A00D611D221F749F3327A00D611D231F1B
:100F9000849F600D211D822F762F6A2F11249F5769
:100FA00050409AF0F1F088234AF0EE0FFF1FBB1F6C
:100FB000661F771F881F91505040A9F79E3F51052B
:100FC00080F00C9435070C9480075F3FE4F3983E63
:100FD000D4F3869577956795B795F795E7959F5FD5
:100FE000C1F7FE2B880F911D9695879597F9089567
:100FF0000E941107880B990B0895A1E21A2EAA1BD3
:10100000BB1BFD010DC0AA1FBB1FEE1FFF1FA217B8
:10101000B307E407F50720F0A21BB30BE40BF50BB5
:10102000661F771F881F991F1A9469F7609570953E
:10103000809590959B01AC01BD01CF010895EE0F05
:0E104000FF1F0590F491E02D0994F894FFCF66
:10104E00000000007401D4000101C1013201100141
:10105E0024016E616E00696E66006F7666004675DD
:10106E00656C204C6576656C3A200020636D207CA3
:10107E0020004675656C2050657263656E746167FD
:0A108E00653A20002025000D0A003D
:00000001FF
